:1000000037EF01F00000000000EF00F000000000FA
:0A0010000000000000000000F3D71C
:0A001C00210E0D6E0D2EFED712000E
:100026000F0E0C6E470E0D6E0D2EFED70C2EFCD746
:06003600000000001200B2
:06003C00000000001200AC
:1000420042BE02D0819601D0818642BC02D0819408
:1000520001D0818442BA02D0819201D0818242B819
:1000620002D0819001D081802DB002D0818801D050
:100072008198818AE2DF819A42B602D0819601D0CC
:10008200818642B402D0819401D0818442B202D0EE
:10009200819201D0818242B002D0819001D08180D0
:1000A2002DB002D0818801D08198818AC6DF819AE1
:0C00B2002DA002D0B7DF01D0B0DF12009B
:1000BE00020E0C6E490E0D6E0D2EFED70C2EFCD7B9
:0600CE000000000012001A
:0C00D4002D9041C042F0B3DF2D801200DF
:1000E000939A93989390939293949396819A8198EC
:1000F000819681948192819096DF95DF94DF818251
:100100008180818A9BDF819A8EDF818A97DF819A45
:100110008ADF818A93DF819A86DF8190818A8EDFF0
:10012000819A81DF818A8ADF819A81928186818AA0
:1001300085DF819A78DF81968180818A7FDF819A4D
:100140008190818A7BDF819A6EDF818A77DF819A55
:100150008180818A73DF819A66DF8190818A6EDF78
:10016000819A8186818481828180818A67DF819AF8
:060170005ADF2D80120091
:100176000900F5CFE6FF0006FBE10106F9E11200F2
:10018600406A3CC001F0010E006E015004E00036EA
:100196000090FF0FFBD700C03FF03AC0E9FF3BC01D
:1001A600EAFF0050EE14016E0152010ED8A4000EB3
:1001B600006E3E50001A18E03D50000804E27CDF55
:1001C6007BDF3D06F9D73AC0E9FF3BC0EAFF3F5067
:1001D600EE14016E0152010ED8A4000E006E3E50C0
:0E01E600001A02E0FF0E406E40C000F0120052
:1001F4000FD0800E3A6E19D0C00E3A6E16D0940EFF
:100204003A6E13D0D40E3A6E10D0800E3A6E0DD0E2
:100214003A50010AEEE03A50020AEEE03A50030A7C
:10022400EEE03A50040AEEE0F0D73B04006E3A5098
:10023400002600C03AF000C042F001DF2D903E6A73
:100244003E503C24E96E000E3D20EA6EEE520BE077
:100254003E503C24E96E000E3D20EA6EEECF41F0A4
:0A02640037DF3E2AEDD72D8012008F
:10026E0043EC08F02C0EF66E100EF76E000EF86EC4
:10027E00610EE16E000EE26E2C0E006E010E016E2E
:10028E0073DF1B0E00018D6F000E8E6F150E8F6FBC
:10029E00000E906F170E916F000E926F190E936FE6
:1002AE00000E946F430E956F6F0E966F750E976FCF
:1002BE006E0E986F740E996F650E9A6F720E9B6F1D
:1002CE00200E9C6F3A0E9D6F200E9E6F9F6B010E3F
:1002DE00A06F000EA16F0F0E956E926A300E0F0179
:1002EE003B6F936A396B040E946E3A6B010E966EE9
:1002FE003C6BEFDE010E426E9DDE0C0E426E9ADE00
:10030E00000E0001A11902E1010EA01922E1010E59
:10031E003A6E010E3B6E610E3C6E000E3D6E63DF5B
:10032E00020E3A6E010E3B6E690E3C6E000E3D6E75
:10033E005ADF0001A06BA16B150E0B6E4B0E0C6EEF
:10034E00BE0E0D6E0D2EFED70C2EFCD70B2EFAD731
:10035E000000830E3A6E0F0E3B6E3C6A640E3D6ECD
:10036E00010E3E6E09DF005205E0010E306E000EEA
:10037E00316E02D0306A316A830E3A6E0F0E3B6ECA
:10038E00010E3C6E640E3D6E010E3E6EF5DE0052A9
:10039E0005E0010E326E000E336E02D0326A336A01
:1003AE00830E3A6E0F0E3B6E020E3C6E640E3D6E69
:1003BE00010E3E6EE1DE005205E0010E346E000EBF
:1003CE00356E02D0346A356A830E3A6E0F0E3B6E6E
:1003DE00030E3C6E010E3D6E010E3E6ECDDE0052E2
:1003EE0005E0010E366E000E376E02D0366A376AA1
:1003FE00820E3A6E0F0E3B6E020E3C6E010E3D6E7D
:10040E00010E3E6EB9DE005205E0010E386E000E92
:10041E00396E02D0386A396A000E391802E1010EBF
:10042E00381803E1020E826E02D0010E826E840E27
:10043E003A6E0F0E3B6E3C6A010E3D6E010E3E6E25
:10044E009BDE00521FE0060E846E030E0B6E080E2E
:10045E000C6E770E0D6E0D2EFED70C2EFCD70B2EBE
:10046E00FAD7020E846E030E0B6E080E0C6E770E0C
:10047E000D6E0D2EFED70C2EFCD70B2EFAD7060EB8
:10048E00846E01D0846A000E311802E1010E30181C
:10049E00D8A449D2310E0001876F000E331802E145
:1004AE00010E3218D8A4C4D0310E896F000E351843
:1004BE0002E1010E341805E1310E8B6F070E806ECE
:1004CE00B6D0300E8B6F030E806E000E371802E121
:1004DE00010E3618D8A4ABD0100E836E030E2E6EFE
:1004EE00000E2F6E800E2F18006E800E005C02E143
:1004FE00000E2E5C46E3030E0B6E8A0E0C6E550E2E
:10050E000D6E0D2EFED70C2EFCD70B2EFAD700003B
:10051E000000010E426E8EDD0C0E426E8BDD010E62
:10052E003A6E010E3B6E950E3C6E000E3D6E5BDE1E
:10053E00020E3A6E010E3B6E2EC000F02FC001F07F
:10054E000036009001368D0E0024E96E000E01205B
:10055E00EA6EEECF3CF0EECF3DF045DE030E0B6EB5
:10056E008A0E0C6E550E0D6E0D2EFED70C2EFCD770
:10057E000B2EFAD700000000010E2E5E000E2F5A31
:10058E00B1D7200E836E030E2E6E000E2F6E800ED0
:10059E002F18006E800E005C02E1000E2E5C46E30A
:1005AE00030E0B6E8A0E0C6E550E0D6E0D2EFED7B3
:1005BE000C2EFCD70B2EFAD700000000010E426E57
:1005CE0039DD0C0E426E36DD010E3A6E010E3B6EBB
:1005DE00950E3C6E000E3D6E06DE020E3A6E010E5C
:1005EE003B6E2EC000F02FC001F000360090013699
:1005FE008D0E0024E96E000E0120EA6EEECF3CF067
:10060E00EECF3DF0F0DD030E0B6E8A0E0C6E550E26
:10061E000D6E0D2EFED70C2EFCD70B2EFAD700002A
:10062E000000010E2E5E000E2F5AB1D7836A7AD1CA
:10063E00300E0001896F000E351802E1010E3418DC
:10064E00D8A4B7D0310E8B6F050E806E000E371802
:10065E0002E1010E3618D8A4ABD0100E836E030E35
:10066E002E6E000E2F6E800E2F18006E800E005C08
:10067E0002E1000E2E5C46E3030E0B6E8A0E0C6E2C
:10068E00550E0D6E0D2EFED70C2EFCD70B2EFAD757
:10069E0000000000010E426ECDDC0C0E426ECADC74
:1006AE00010E3A6E010E3B6E950E3C6E000E3D6EC7
:1006BE009ADD020E3A6E010E3B6E2EC000F02FC078
:1006CE0001F00036009001368D0E0024E96E000E0A
:1006DE000120EA6EEECF3CF0EECF3DF084DD030E4E
:1006EE000B6E8A0E0C6E550E0D6E0D2EFED70C2E49
:1006FE00FCD70B2EFAD700000000010E2E5E000E66
:10070E002F5AB1D7200E836E030E2E6E000E2F6E53
:10071E00800E2F18006E800E005C02E1000E2E5C23
:10072E0046E3030E0B6E8A0E0C6E550E0D6E0D2EDD
:10073E00FED70C2EFCD70B2EFAD700000000010EB0
:10074E00426E78DC0C0E426E75DC010E3A6E010EB6
:10075E003B6E950E3C6E000E3D6E45DD020E3A6E02
:10076E00010E3B6E2EC000F02FC001F0003600903F
:10077E0001368D0E0024E96E000E0120EA6EEECFDA
:10078E003CF0EECF3DF02FDD030E0B6E8A0E0C6E9D
:10079E00550E0D6E0D2EFED70C2EFCD70B2EFAD746
:1007AE0000000000010E2E5E000E2F5AB1D7836A94
:1007BE00B9D0300E00018B6F010E806E000E37180F
:1007CE0002E1010E3618D8A4ADD0100E836E030EC2
:1007DE002E6E000E2F6E800E2F18006E800E005C97
:1007EE0002E1000E2E5C46E3030E0B6E8A0E0C6EBB
:1007FE00550E0D6E0D2EFED70C2EFCD70B2EFAD7E6
:10080E0000000000010E426E15DC0C0E426E12DC72
:10081E00010E3A6E010E3B6E950E3C6E000E3D6E55
:10082E00E2DC020E3A6E010E3B6E2EC000F02FC0BF
:10083E0001F00036009001368D0E0024E96E000E98
:10084E000120EA6EEECF3CF0EECF3DF0CCDC030E95
:10085E000B6E8A0E0C6E550E0D6E0D2EFED70C2ED7
:10086E00FCD70B2EFAD700000000010E2E5E000EF4
:10087E002F5AB1D7200E836E030E2E6E000E2F6EE2
:10088E00800E2F18006E800E005C02E1000E2E5CB2
:10089E0048E3030E0B6E8A0E0C6E550E0D6E0D2E6A
:1008AE00FED70C2EFCD70B2EFAD700000000010E3F
:1008BE00426E21EC00F00C0E426E21EC00F0010EA7
:1008CE003A6E010E3B6E950E3C6E000E3D6E8BDC4D
:1008DE00020E3A6E010E3B6E2EC000F02FC001F0DC
:1008EE000036009001368D0E0024E96E000E0120B8
:1008FE00EA6EEECF3CF0EECF3DF075DC030E0B6EE4
:10090E008A0E0C6E550E0D6E0D2EFED70C2EFCD7CC
:10091E000B2EFAD700000000010E2E5E000E2F5A8D
:10092E00AFD7836A18D3300E0001876F000E3318CD
:10093E0002E1010E3218D8A487D1310E896F000E54
:10094E00351802E1010E3418D8A4BED0310E8B6FCB
:10095E00060E806E000E371802E1010E3618D8A46E
:10096E00B2D0100E836E030E2E6E000E2F6E800E02
:10097E002F18006E800E005C02E1000E2E5C49E323
:10098E00030E0B6E8A0E0C6E550E0D6E0D2EFED7CF
:10099E000C2EFCD70B2EFAD700000000010E426E73
:1009AE0021EC00F00C0E426E21EC00F0010E3A6EBE
:1009BE00010E3B6E950E3C6E000E3D6E14DC020E6B
:1009CE003A6E010E3B6E2EC000F02FC001F00036C5
:1009DE00009001368D0E0024E96E000E0120EA6EA5
:1009EE00EECF3CF0EECF3DF0FAEC00F0030E0B6EC6
:1009FE008A0E0C6E550E0D6E0D2EFED70C2EFCD7DC
:100A0E000B2EFAD700000000010E2E5E000E2F5A9C
:100A1E00AED7200E836E030E2E6E000E2F6E800E3E
:100A2E002F18006E800E005C02E1000E2E5C4AE371
:100A3E00030E0B6E8A0E0C6E550E0D6E0D2EFED71E
:100A4E000C2EFCD70B2EFAD700000000010E426EC2
:100A5E0021EC00F00C0E426E21EC00F0010E3A6E0D
:100A6E00010E3B6E950E3C6E000E3D6EFAEC00F0E4
:100A7E00020E3A6E010E3B6E2EC000F02FC001F03A
:100A8E000036009001368D0E0024E96E000E012016
:100A9E00EA6EEECF3CF0EECF3DF0FAEC00F0030E36
:100AAE000B6E8A0E0C6E550E0D6E0D2EFED70C2E85
:100ABE00FCD70B2EFAD700000000010E2E5E000EA2
:100ACE002F5AADD7836ABFD0300E00018B6F020E46
:100ADE00806E000E371802E1010E3618D8A4B3D07E
:100AEE00100E836E030E2E6E000E2F6E800E2F18BC
:100AFE00006E800E005C02E1000E2E5C4AE3030ED7
:100B0E000B6E8A0E0C6E550E0D6E0D2EFED70C2E24
:100B1E00FCD70B2EFAD700000000010E426E21EC1E
:100B2E0000F00C0E426E21EC00F0010E3A6E010E3A
:100B3E003B6E950E3C6E000E3D6EFAEC00F0020E12
:100B4E003A6E010E3B6E2EC000F02FC001F0003643
:100B5E00009001368D0E0024E96E000E0120EA6E23
:100B6E00EECF3CF0EECF3DF0FAEC00F0030E0B6E44
:100B7E008A0E0C6E550E0D6E0D2EFED70C2EFCD75A
:100B8E000B2EFAD700000000010E2E5E000E2F5A1B
:100B9E00ADD7200E836E030E2E6E000E2F6E800EBE
:100BAE002F18006E800E005C02E1000E2E5C4AE3F0
:100BBE00030E0B6E8A0E0C6E550E0D6E0D2EFED79D
:100BCE000C2EFCD70B2EFAD700000000010E426E41
:100BDE0021EC00F00C0E426E21EC00F0010E3A6E8C
:100BEE00010E3B6E950E3C6E000E3D6EFAEC00F063
:100BFE00020E3A6E010E3B6E2EC000F02FC001F0B9
:100C0E000036009001368D0E0024E96E000E012094
:100C1E00EA6EEECF3CF0EECF3DF0FAEC00F0030EB4
:100C2E000B6E8A0E0C6E550E0D6E0D2EFED70C2E03
:100C3E00FCD70B2EFAD700000000010E2E5E000E20
:100C4E002F5AADD7836A87D1300E0001896F000EFF
:100C5E00351802E1010E3418D8A4BFD0310E8B6FB7
:100C6E00040E806E000E371802E1010E3618D8A45D
:100C7E00B3D0100E836E030E2E6E000E2F6E800EEE
:100C8E002F18006E800E005C02E1000E2E5C4AE30F
:100C9E00030E0B6E8A0E0C6E550E0D6E0D2EFED7BC
:100CAE000C2EFCD70B2EFAD700000000010E426E60
:100CBE0021EC00F00C0E426E21EC00F0010E3A6EAB
:100CCE00010E3B6E950E3C6E000E3D6EFAEC00F082
:100CDE00020E3A6E010E3B6E2EC000F02FC001F0D8
:100CEE000036009001368D0E0024E96E000E0120B4
:100CFE00EA6EEECF3CF0EECF3DF0FAEC00F0030ED4
:100D0E000B6E8A0E0C6E550E0D6E0D2EFED70C2E22
:100D1E00FCD70B2EFAD700000000010E2E5E000E3F
:100D2E002F5AADD7200E836E030E2E6E000E2F6E31
:100D3E00800E2F18006E800E005C02E1000E2E5CFD
:100D4E004AE3030E0B6E8A0E0C6E550E0D6E0D2EB3
:100D5E00FED70C2EFCD70B2EFAD700000000010E8A
:100D6E00426E21EC00F00C0E426E21EC00F0010EF2
:100D7E003A6E010E3B6E950E3C6E000E3D6EFAEC19
:100D8E0000F0020E3A6E010E3B6E2EC000F02FC028
:100D9E0001F00036009001368D0E0024E96E000E33
:100DAE000120EA6EEECF3CF0EECF3DF0FAEC00F013
:100DBE00030E0B6E8A0E0C6E550E0D6E0D2EFED79B
:100DCE000C2EFCD70B2EFAD700000000010E2E5E63
:100DDE00000E2F5AADD7836ABED0300E00018B6F36
:100DEE00806A000E371802E1010E3618D8A4B3D06F
:100DFE00100E836E030E2E6E000E2F6E800E2F18A9
:100E0E00006E800E005C02E1000E2E5C4AE3030EC3
:100E1E000B6E8A0E0C6E550E0D6E0D2EFED70C2E11
:100E2E00FCD70B2EFAD700000000010E426E21EC0B
:100E3E0000F00C0E426E21EC00F0010E3A6E010E27
:100E4E003B6E950E3C6E000E3D6EFAEC00F0020EFF
:100E5E003A6E010E3B6E2EC000F02FC001F0003630
:100E6E00009001368D0E0024E96E000E0120EA6E10
:100E7E00EECF3CF0EECF3DF0FAEC00F0030E0B6E31
:100E8E008A0E0C6E550E0D6E0D2EFED70C2EFCD747
:100E9E000B2EFAD700000000010E2E5E000E2F5A08
:100EAE00ADD7200E836E030E2E6E000E2F6E800EAB
:100EBE002F18006E800E005C02E1000E2E5C4AE3DD
:100ECE00030E0B6E8A0E0C6E550E0D6E0D2EFED78A
:100EDE000C2EFCD70B2EFAD700000000010E426E2E
:100EEE0021EC00F00C0E426E21EC00F0010E3A6E79
:100EFE00010E3B6E950E3C6E000E3D6EFAEC00F050
:100F0E00020E3A6E010E3B6E2EC000F02FC001F0A5
:100F1E000036009001368D0E0024E96E000E012081
:100F2E00EA6EEECF3CF0EECF3DF0FAEC00F0030EA1
:100F3E000B6E8A0E0C6E550E0D6E0D2EFED70C2EF0
:100F4E00FCD70B2EFAD700000000010E2E5E000E0D
:100F5E002F5AADD7836A000E311802E1010E3018F8
:100F6E001FE1000E331802E1010E321819E1000ED6
:100F7E00351802E1010E341813E1010E426E21EC18
:100F8E0000F00C0E426E21EC00F0020E3A6E010ED5
:100F9E003B6E1D0E3C6E000E3D6EFAEC00F030D036
:100FAE00010E426E21EC00F00C0E426E21EC00F0B0
:100FBE00010E3A6E010E3B6E780E3C6E000E3D6ECB
:100FCE00FAEC00F0020E3A6E030E3B6E870E3C6E8C
:100FDE00000E3D6EFAEC00F0020E3A6E090E3B6EFC
:100FEE00890E3C6E000E3D6EFAEC00F0020E3A6E6B
:100FFE000F0E3B6E8B0E3C6E000E3D6EFAEC00F04B
:10100E00030E0B6E080E0C6E770E0D6E0D2EFED7A8
:0E101E000C2EFCD70B2EFAD787EF01F0FFD770
:1010860010EE15F0180E006E010E016E6D0EF66E66
:0E109600100EF76E000EF86EBBEC00F01200AC
:08102C0057656C636F6D6500F0
:0F103400546F20546865205061726B696E6700BD
:0F104300736C743120736C743220736C743300CF
:0210520031006B
:02105400310069
:02105600310067
:081058001B0015001700190030
:0B106000436F756E746572203A20002B
:02106B00010082
:02106D00310050
:02106F0032004D
:0210710033004A
:0210730030004B
:101075005061726B696E672049732046756C6C0010
:020000040030CA
:0D000100231F3CFFBF81FF0FC00FE00F4029
:00000001FF
